:040000005EEF09F0B6
:08000800046ED8CF05F0E0CF33
:1000100006F00001E9CF0CF0EACF07F0E1CF08F0DD
:10002000E2CF09F0D9CF0AF0DACF0BF0F3CF12F01C
:10003000F4CF13F0FACF14F000C00EF001C00FF0AF
:1000400002C010F003C011F09DA02AEF00F09EB096
:10005000EAEF00F00EC000F00FC001F010C002F097
:1000600011C003F00CC0E9FF07C0EAFF078E08C00B
:10007000E1FF09C0E2FF0AC0D9FF0BC0DAFF12C0DE
:10008000F3FF13C0F4FF14C0FAFF045006C0E0FFF2
:1000900005C0D8FF1000F2CF0DF0F29EF76AB00F46
:1000A000F66E000EF7220900F5500DBEF28E12001A
:1000B000C0F9A4B0999282F880908883C6A1868EF8
:1000C000F2CF0DF0F29EF76ADA0FF66E000EF7220D
:1000D0000900F5500DBEF28E12007FBFDFEFF7FB77
:1000E000FDFEF2CF0DF0F29EF76AFC0FF66E000EE9
:1000F000F7220900F5500DBEF28E12000001020534
:100100000304010220030703060602050303060693
:10011000020303040703072020070706060303045E
:10012000000606050304010107202007000602055A
:1001300003040006020303042020202020200706D9
:1001400006030304070607072020202020200320A1
:10015000010701200720072020070303F2CF0DF03D
:10016000F29EF76A760FF66E010EF7220900F5503F
:100170000DBEF28E1200070F1F1F1F1F1F1F1F1F14
:100180001F00000000001C1E1F1F1F1F1F1F00005C
:100190000000001F1F1F1F1F1F1F1F1F1E1C1F1FD0
:1001A0001F1F1F1F0F071F1F1F0000001F1F1F1FE4
:1001B0001F1F1F1F1F1FF2CF0DF0F29EF76AD00FF7
:1001C000F66E010EF7220900F5500DBEF28E1200F8
:1001D00080C094D45C2A0B0ECF6EDC0ECE6E9E9047
:1001E0002AEF00F0000E956E966E956A8C68166880
:1001F000176895928C9295908C901A6A196A79EF8B
:1002000009F069C06BF06A6B6A5107080EE36BBFB7
:1002100002D08D9401D08D84969496908D90969076
:100220008D80D8906B376A2BEFD71200956A8C6A55
:1002300016B802D08C9801D08C88959816BC02D044
:100240008C9C01D08C8C959C16B402D08C9401D0DF
:100250008C84959495928C82120022C069F0D1DF33
:1002600021C069F0CEDF20C069F0CBDF1FC069F08C
:10027000C8DF1694DBDF95968C8695968C969592C2
:100280008C924AEF01F06751206E201E68C01FF06B
:100290001F1EE3D71200338033C067F066C068F0DA
:1002A000F2DF339033C067F066C068F0ECDF120015
:1002B000339465C066F0EFDF200E006E002EFED78F
:1002C00000D000001200EA6A610EE96EEF500DE006
:1002D000060E016E006A002EFED7012EFBD77B0EA4
:1002E000006E002EFED7EF2EF3D71200339033921C
:1002F00033843396380E656FDBDF420E006E002EBE
:10030000FED700000C0E656FD3DF420E006E002E8C
:10031000FED70000010E656FCBDF020E616FD3DFE9
:10032000060E656FC5DF420E006E002EFED7000080
:1003300085EF09F0030E5F5E09E3EA6A5F0EE96E7E
:10034000EF5004E001D000D0EF2EFDD71200929ABA
:10035000929A899A020E5E6EF90E5F6EEBDF5E2E48
:10036000FBD7928A070E006E002EFED700D0000049
:1003700080BA03D0000E016E10D06B0E006E002EFE
:10038000FED700D000005D9080AA5D80F00E5F6E09
:10039000D1DF000E5DB0010E016E1200929A929AAA
:1003A000899A100E006E002EFED7000060530EE0FA
:1003B000929A929A898A100E006E002EFED7000043
:1003C00080BA03D0000E016E1FD00DD0929A929A7F
:1003D000899A100E006E002EFED7000080AA03D06E
:1003E000000E016E11D0520E006E002EFED700D00E
:1003F0000000929A929A898A520E006E002EFED7C1
:1004000000D00000010E016E13EF02F0010E5E6ECF
:100410005E5008080FE3D8905D32000ED8B0010E90
:100420005F6E606FBBD7015203E1000E016E04D016
:100430005E2AEED7010E016E120089DFCC0E5D6ED2
:10044000E5DF4E0E5D6EE2DF5D6AE0DF5D6ADEDFF6
:100450001F0E5D6EDBDF7BDFCC0E5D6ED7DF480EDF
:100460005D6ED4DF87EF09F0338462C066F013DF7E
:10047000200E006E002EFED700D000001200080EE5
:10048000016E050E006E002EFED78A929392060E24
:10049000006E002EFED75D368A90D8B09380D8A02B
:1004A0009390938281A2FED7012EEBD7050E006EAA
:1004B000002EFED78A92939200009380060E006E63
:1004C000002EFED7060E006E002EFED7938281A26C
:1004D000FED7016A060E006E002EFED781B00180A5
:1004E0008A9293928A9093901200080E5E6E00C0DA
:1004F0005FF09380060E006E002EFED7938281A2DD
:10050000FED781B0D88081A0D8900136050E006E4C
:10051000002EFED793928A925E2EEBD79380060E22
:10052000006E002EFED78A905F50D8A493900000F2
:10053000938281A2FED7050E006E002EFED78A920E
:100540009392060E006E002EFED78A9093901200B2
:100550009380050E006E002EFED79382060E006E6D
:10056000002EFED78A909390050E006E002EFED7C7
:100570008A929392D00E5D6E82DF5D6A80DF9380F7
:10058000050E006E002EFED79382060E006E002E22
:10059000FED781A2FED78A909390050E006E002EA2
:1005A000FED78A929392D10E5D6E69DF010E006EC6
:1005B0009CDF01C03AF0010E006E97DF01C039F0F8
:1005C000010E006E92DF01C038F0010E006E8DDF6B
:1005D00001C037F0010E006E88DF01C036F0010E59
:1005E000006E83DF01C035F0010E006E7EDF01C0BA
:1005F00034F0010E006E79DF01C03CF0006A75DF57
:1006000001C03BF093900000938281A2FED7050EBB
:10061000006E002EFED700D000009380050E006E05
:10062000002EFED71200550E3A6E330E396E140EA0
:10063000386E070E376E200E366E120E356E230E94
:10064000346E900E3C6E960E3B6E12009380050E3B
:10065000006E002EFED79382060E006E002EFED78F
:100660008A909390050E006E002EFED78A92939288
:10067000D00E5D6E04DF5D6A02DF3AC05DF0FFDE22
:1006800039C05DF0FCDE38C05DF0F9DE37C05DF0EA
:10069000F6DE36C05DF0F3DE35C05DF0F0DE34C06E
:1006A0005DF0EDDE3CC05DF0EADE3BC05DF0E7DE14
:1006B00093900000938281A2FED7050E006E002E5B
:1006C000FED700D000009380050E006E002EFED7EE
:1006D00012008E0E006E5EC001F05DC002F0036A73
:1006E000015209E102C001F0026A080E005E0152E7
:1006F00002E1006A08D0D89001BE04D0023601366B
:100700000006F9D7019E1200800ED8B2621B676BFB
:10071000686B5EC066F06251661B5D50D8B4DCD079
:10072000656F006E6151D8B4E0D0655FD8B481D0F8
:100730003DE362C06BF06B8F63C06AF064C069F028
:10074000686BD8906B336A3369336833652FF8D799
:1007500066AF03D06781DDD0679165916789EA6AEA
:10076000600EE96EE9D0679966BF0AD065A113D023
:100770006B336A3369336833002AD8B4C5D00BD0E1
:100780006BBF0CD0D890683769376A376B37000673
:10079000D8B4BAD0F5D7678D6BD0679D5EC066F0D0
:1007A0005EAE02D06B8FA9D06B9FA7D061C065F001
:1007B00061C000F05D50655F5EC06BF06B8F5FC025
:1007C0006AF060C069F0686BD8906B336A33693344
:1007D0006833652FF8D766AF03D067839AD06793E5
:1007E0006591678BEA6A640EE96EA6D0679B66BF67
:1007F0000AD065A113D06B336A3369336833002A9A
:10080000D8B482D00BD06BBF0CD0D8906837693782
:100810006A376B370006D8B477D0F5D7678F28D002
:10082000679F62C066F062AF02D06B8F66D06B9F2D
:1008300064D062C06BF06B8F63C06AF064C069F013
:1008400066AF04D06B9F678564D06795686B6591D0
:10085000EA6A600EE96E70D066BF1CD05EC066F0BA
:1008600065A106D06B336A3369336833002A4CE0E4
:1008700068AF0BD0692B09E16A2B07E16B2B05E10F
:100880006B336A336933002A3FE067BD86D767BFA1
:10089000C7D71CD0800E6B1B6BAF04D03AD062C0A0
:1008A00066F00AD05EC066F06B5306E16A5304E15D
:1008B000695302E1006A21D06BBF08D0D890683735
:1008C00069376A376B37002EF7D71ED066AF02D074
:1008D0006B8F13D06B9F11D061C000F062C06BF0C2
:1008E00063C06AF064C069F008D05DC000F05EC00B
:1008F0006BF05FC06AF060C069F06BC001F06AC065
:1009000002F069C003F034D0006A016A026A036A27
:100910002FD0686B691F6A1F6B1F681F682B05E16A
:10092000692B03E16A2B01E16B2B67B115D767B324
:1009300056D767B58AD7B3D7EF50692705E36A2B37
:1009400003E16B2BD8B46581ED52EF506A2703E3C6
:100950006B2BD8B46581ED52EF50EFBE01D0800A09
:100960006B27D8B0658167B9FED667BB3FD774D710
:1009700029EF06F05D50D8B4A5D0696F6151D8B4A5
:10098000A1D0695F05E37F0E6927D8B09BD006D060
:10099000810E695FD8A096D0D8B494D069C000F019
:1009A000016A026A036A686B5EC067F0678F5FC0A6
:1009B00066F060C065F0190E696F6451655F0DE205
:1009C000010E665F0AE2675F08E2685F06E2682B75
:1009D000672B662B6451652728D06351665F12E24E
:1009E000010E675F0FE2685F0DE2682B672B6351B2
:1009F00066276451652719E3662B17E1672B15E11C
:100A0000682B13D062518009675F0EE2010E685FA8
:100A10000BE2682B62518009672763516627E9E37F
:100A2000672BE7E1682BE5D70380692F01D00BD056
:100A3000D8906537663767376837D89003360236FF
:100A400001366A37BAD76AA106D0D890013202328D
:100A500003326A3302D0000635E06ABF1ED0D89058
:100A600065376637673768376451655F07E2010E9F
:100A7000665F04E2675F02E2685F1AE36351665FE4
:100A800005E2010E675F02E2685F12E362518009CE
:100A9000675F03E2010E685F0BE3032A09E1022AA4
:100AA00007E1012A05E1002A0DE00132023203329A
:100AB0005EC069F06251691B69AF02D0018E06D039
:100AC000019E04D0006A016A026A036A12005D5046
:100AD000D8B471D0006E6151D8B46DD0002604E353
:100AE000810E002668E204D07F0E005E64E363E0BE
:100AF0005EC065F06251651B5E8E628F605164035B
:100B0000F4CF67F05F506303F4CF03F0F3CF66F0E8
:100B10006403F3506727F4506623000E03226051EC
:100B20006303F3506727F4506623000E026A032222
:100B300002225E506403F3506627F4500322000E35
:100B400002225E506303F3500326F4500222000E8B
:100B5000016A012260516203F3506627F4500322B8
:100B6000000E022201225F506203F3500326F4506C
:100B70000222000E01225E506203F3500226F4505E
:100B80000122002A01BE05D066370336023601363F
:100B90000006000E66AF0AD0032A0222012201508D
:100BA00005E1025003E1035001E1002A65BF018E17
:100BB00065AF019E04D0006A016A026A036A78EF99
:100BC00006F08E0E006E6151005E62C002F063C0DE
:100BD00001F0028E005209E0D890025202E1015267
:100BE00004E002320132002EF7D762AF05D0011EB9
:100BF000021E012AD8B4022A1200000E016EC25051
:100C0000C30B0110C26E466A456A446A436A3E6A73
:100C10003EBE03D055503E5C26E2C282C2B2FED731
:100C2000C4CF03F0C3CF5DF0C4CF5EF052DDD892E5
:100C300046C060F045C05FF044C05EF043C05DF068
:100C400003C064F002C063F001C062F000C061F054
:100C50005BD503C046F002C045F001C044F000C0BF
:100C600043F03E2AD5D746C060F045C05FF044C08F
:100C70005EF043C05DF0AA0E646FF10E636F020E6A
:100C8000626F800E616F76DE03C046F002C045F0F1
:100C900001C044F000C043F05E6A55C05DF019DD4C
:100CA00046C060F045C05FF044C05EF043C05DF0F8
:100CB00003C064F002C063F001C062F000C061F0E4
:100CC00059DE03C046F002C045F001C044F000C048
:100CD00043F046C060F045C05FF044C05EF043C0E2
:100CE0005DF0646B636B200E626F820E616FEFD6F6
:100CF00003C064F002C063F001C062F000C061F0A4
:100D000060DF02C050F001C04FF0BCEF09F0016A93
:100D1000026A006A036A665102E1655118E0100E2A
:100D2000676FD89063376437003603366651035CCB
:100D300002E16551005C07E36551005ED8A003063F
:100D40006651035ED88001360236672FEAD712005B
:100D50005EC064F05DC063F0666B0A0E656FD7DF3E
:100D600000C03FF05EC064F05DC063F0666B0A0EC9
:100D7000656FCDDF02C060F001C05FF002C064F0BB
:100D800001C063F0666B0A0E656FC1DF00C040F002
:100D90005EC064F05DC063F0666B640E656FB7DFC4
:100DA00001C041F0415206E10A0E416E405202E19B
:100DB0000A0E406E3A38006E0F0E001600500F0BF0
:100DC000596E3A500F0B586E595202E10A0E596E85
:100DD000C1EF09F0036A6251F2CF64F0F29EDBECDE
:100DE00000F064BFF28E6325646F656F58EC01F00C
:100DF0001200006A016A6151D89062B10026003287
:100E0000013262B300260032013262B500260032A0
:100E1000013262B700260032013262B90026003288
:100E2000013262BB00260032013262BD0026003270
:100E3000013262BF002600320132B0EF07F0956A3E
:100E40008C6A17BC02D08C9C01D08C8C959C17B8F6
:100E500002D08C9801D08C88959817B402D08C94CD
:100E600001D08C84959495908C801200036A625115
:100E7000F2CF64F0F29E60EC00F064BFF28E016E7F
:100E8000646F641F64C069F001EC01F063C064F03A
:100E9000641F64C069F001EC01F01798D0DF959AE7
:100EA0008C8A959A8C9A95908C9090EF07F061516E
:100EB000636F631F63C069F001EC01F062C063F00F
:100EC000631F63C069F001EC01F01798B8DF959AD1
:100ED0008C8A959A8C9A95908C9072EF07F0616944
:100EE0006269E5D795EF07F02B6A2B5007081FE3DF
:100EF000036A2B50230FE96E000E0320EA6EEF3CCD
:100F000001D013D0036A2B50230FE96E000E03208B
:100F1000EA6EEFCF61F02BC062F061C063F0A6D73C
:100F2000020E616F63EC01F0DAD72B2ADED71200D4
:100F30005EC062F05FC063F04DDF606B605105081A
:100F400027E36051030807E1010E5E24616F626FC1
:100F50005FC063F03FDF5DC061F0060E626F49D78E
:100F60000150626B616F036A60516125016E6251CD
:100F700003220150F2CF61F0F29E71EC00F061BFEC
:100F8000F28E616F626F34EC02F0AEDF602BD6D769
:100F9000120058C05DF05E6A080E5F6EC9DF41C086
:100FA0005DF0020E5E6E5F6EC3DF40C05DF0020E4C
:100FB0005E6E080E5F6EBCDF3FC05DF0020E5E6EBF
:100FC0000B0E5F6EB5DFC8EF09F05EC064F05DC068
:100FD00063F0666B0A0E656F9ADE00C05FF003C0B7
:100FE00060F003C003F00050F2CF61F0F29E4BECD2
:100FF00000F061BFF28E236E5EC064F05DC063F0EE
:10100000666B0A0E656F83DE02C060F001C05FF0A0
:1010100002C064F001C063F0666B0A0E656F77DE94
:1010200000C05FF003C060F003C003F00050F2CFD7
:1010300061F0F29E4BEC00F061BFF28E7F0B246EEC
:101040005EC064F05DC063F0666B640E656F5FDE6A
:1010500002C060F001C05FF002C003F00150F2CFA7
:1010600061F0F29E4BEC00F061BFF28E256E3A50BB
:101070000F0B036AF2CF5FF0F29E4BEC00F05FBE05
:10108000F28E276E3A38006E0F0E001600500F0BCE
:10109000036AF2CF5FF0F29E4BEC00F05FBEF28E7F
:1010A000286E480E296EC60E2A6E2550C00806E12D
:1010B000C00E256E2450C00801E124682850C008E5
:1010C00001E12868D6EF09F0929A929A899A160E51
:1010D000006E002EFED700D00000928A070E006E30
:1010E000002EFED700D000005F9080BA5F80A60E71
:1010F000006E002EFED70000000E5FB0010E016EE4
:1011000088EF08F0010E5D6E5D50080809E3DCD73A
:10111000015202E1D89001D0D8805E325D2AF4D726
:101120005EC001F01200CC0E5D6E06EC02F0440EC3
:101130005D6E06EC02F0A7EC01F0CC0E5D6E06ECE5
:1011400002F0BE0E5D6E06EC02F0DCDF01C02EF098
:10115000D9DF01C02FF02FC032F02EC031F0E3EF05
:1011600009F05EC064F05DC063F0666B0A0E656FE7
:10117000CEDD02C060F001C05FF002C064F001C0CB
:1011800063F0666B0A0E656FC2DD300E0024566E8A
:101190005EC064F05DC063F0666B0A0E656FB7DD1C
:1011A000300E0024576E5650300802E1200E566E65
:1011B000F3EF09F0030E626F636B0CDE57C062F051
:1011C00034EC02F0030E626F120E636F03DE56C042
:1011D00062F034EC02F0F4EF09F064C069F001EC65
:1011E00001F063C069F001EC01F062C069F001EC4C
:1011F00001F061C069F001EC01F0169C16EC01F001
:10120000959E8C9E959E8C8E95928C925CEF09F0AB
:1012100060C064F05FC063F05EC062F05DC061F00A
:10122000D0DC02C054F001C053F054C064F053C08D
:1012300063F0666B0A0E656F6ADD00C061F003C083
:1012400062F003C003F00050F2CF63F0F29E4BEC6B
:1012500000F063BFF28E5A6E54C064F053C063F066
:10126000666B0A0E656F53DD02C062F001C061F06B
:1012700002C064F001C063F0666B0A0E656F47DD63
:1012800000C061F003C062F003C003F00050F2CF71
:1012900063F0F29E4BEC00F063BFF28E5B6E5B502E
:1012A000C00801E15B68470E616F5BC062F05AC025
:1012B00063F0F80E646F91D7FDEF09F0F86AD09EE5
:1012C000078E186A1F6A206A216A226A2B6A2C6AB2
:1012D0002D6AC150C00B0F09C16E070EB46E236892
:1012E0002468256826682768286829682A68F2EF34
:1012F00000F0C050C00B0209C06EC08EC280C15049
:10130000C00B0D09C16E76EF01F01DEF02F0B50EB6
:10131000CD6E0B0ECF6EDC0ECE6EC00EF2129D8027
:10132000400E656F58EC01F03E6A3EBE03D03E5061
:101330003F080FE3036A3E50F2CF5DF0F29EAEEC41
:1013400000F05DBEF28E5D6E626F34EC02F03E2AFC
:10135000ECD7A8EC02F03B50960804E013EC03F045
:1013600026EC03F0A8EC02F03AC03DF00A0E556EF0
:10137000506A4F6A5C6A41D450C05EF04FC05DF065
:10138000E7D459C05DF05E6A050E5F6ED1DD01D60F
:10139000030E626F050E636F1DDD030E626F34EC8A
:1013A00002F050C05EF04FC05DF00FD65C501D08DB
:1013B00002E39ADD03D01E0ED8805C56A7EC01F044
:1013C00001520CE0B0D63232313232323132323266
:1013D0003132323231320F0E3216326A32C05EF0A2
:1013E00031C05DF0BED6E6D64AC060F049C05FF0BD
:1013F00048C05EF047C05DF00BD73B50960804E054
:1014000013EC03F026EC03F0A8EC02F0B4D70300D1
:020000040030CA
:0E00000027CC3E1E0087A1000FC00FE00F406E
:00000001FF
;PIC18F4550
;CRC=3039  CREATED="19-May-23 15:25"
